:020000040800F2
:10000000F806002065010008711400082D12000890
:1000100000000000000000000000000000000000E0
:100020000000000000000000000000004117000870
:100030000000000000000000731400085B170008B7
:100040007701000800000000770100087701000830
:1000500077010008770100087701000877010008A0
:100060000000000077010008770100087701000810
:100070007701000877010008770100080000000000
:100080007701000800000000000000007701000870
:1000900000000000770100087701000877010008E0
:1000A0007701000877010008770100087701000850
:1000B00077010008000000000000000000000000C0
:1000C00000F002F800F03EF80CA030C80838241800
:1000D0002D18A246671EAB4654465D46AC4201D180
:1000E00000F030F87E460F3E0FCCB6460126334274
:1000F00000D0FB1AA246AB463343184770180000E5
:1001000090180000103A02D378C878C1FAD8520784
:1001100001D330C830C101D504680C6070470000BD
:100120000023002400250026103A01D378C1FBD813
:10013000520700D330C100D50B6070471FB51FBDFB
:1001400010B510BD00F0FAF81146FFF7F7FF01F007
:1001500095FB00F012F903B4FFF7F2FF03BC00F0C7
:1001600019F900000748804707480047FEE7FEE707
:10017000FEE7FEE7FEE7FEE704480549054A064BB1
:1001800070470000D1170008C1000008F8000020E7
:10019000F8060020F8020020F802002001E004C068
:1001A000091F0429FBD28B0701D50280801CC907D7
:1001B00000D00270704700290BD0C30702D0027034
:1001C000401C491E022904D3830702D50280801CEB
:1001D000891EE3E70022EEE70022DFE700220309A1
:1001E0008B422CD3030A8B4211D300239C464EE052
:1001F00003460B433CD4002243088B4231D303090E
:100200008B421CD3030A8B4201D394463FE0C309BF
:100210008B4201D3CB01C01A524183098B4201D3D7
:100220008B01C01A524143098B4201D34B01C01AC2
:10023000524103098B4201D30B01C01A5241C3083A
:100240008B4201D3CB00C01A524183088B4201D3A9
:100250008B00C01A524143088B4201D34B00C01A95
:100260005241411A00D201465241104670475DE0AA
:10027000CA0F00D04942031000D34042534000222D
:100280009C4603098B422DD3030A8B4212D3FC22D6
:10029000890112BA030A8B420CD3890192118B4255
:1002A00008D3890192118B4204D389013AD092116B
:1002B00000E08909C3098B4201D3CB01C01A524126
:1002C00083098B4201D38B01C01A524143098B42EF
:1002D00001D34B01C01A524103098B4201D30B01D8
:1002E000C01A5241C3088B4201D3CB00C01A5241FD
:1002F00083088B4201D38B00C01A5241D9D24308E4
:100300008B4201D34B00C01A5241411A00D2014620
:10031000634652415B10104601D34042002B00D58A
:100320004942704763465B1000D3404201B500204C
:10033000C046C04602BD704770477047754600F022
:1003400025F8AE46050069465346C008C0008546FC
:1003500018B020B5FFF710FF60BC00274908B6466B
:100360000026C0C5C0C5C0C5C0C5C0C5C0C5C0C5C4
:10037000C0C5403D49008D46704710B50446C04693
:10038000C0462046FFF7E7FE10BD0000004870475A
:100390009800002001491820ABBEFEE726000200AD
:1003A000704710B50321142001F0CBF910BDF8B54A
:1003B00006460F4615460421052000F025F8802149
:1003C0000A2001F0BEF9002405E0315D092001F0AA
:1003D00001FA641CE4B2BC42F7D30321012001F00E
:1003E000F9F9FF24052001F045F8641EE4B2002C61
:1003F00001D04007F6D5222001F03CF828702120DA
:1004000001F038F86870F8BD70B505460C4628460E
:1004100001F030F8A0430146284601F0DBF970BD39
:1004200072B6FEE770B5044600F0B6F80546601CEB
:1004300002D004480078241800F0AEF8401BA04217
:10044000FAD370BD10000020F0B500228FE0012724
:1004500097403B40002B7DD00C79A407A40F012CC2
:1004600001D0022C10D1856854000326A640B54364
:10047000CE68A6402E4386604468BC430D79ED06E5
:10048000ED0F9540254345600C79E443A40708D05F
:10049000C56854000326A640B5438E68A6402E4387
:1004A000C6600C79A407A40F022C0CD1D408A400B8
:1004B00027183D6A5407E40E0F26A640B5430E697F
:1004C000A6402E433E62056854000326A640B5436D
:1004D0000E79B607B60FA6402E4306604C68A403FB
:1004E000A40F43D09508254CAD002F193D6E9407FD
:1004F000E40E0F26A640B54305263607B04201D1CB
:1005000000260FE01E4EB04201D101260AE01D4E2A
:10051000B04201D1022605E01B4EB04201D10326B4
:1005200000E00526A6402E43144D3E662C689C43F1
:100530004E68F60200D51C432C606C689C434E68E4
:10054000B60200D51C436C600C4D80356C689C4332
:100550004E6800E00AE0B60300D51C436C602C68CE
:100560009C434E68F60300D51C432C60521C0B685C
:100570001C46D44000D06AE7F0BD000000180240DD
:100580000004005000080050000C0050002A01D068
:100590008161704781627047014880687047000040
:1005A0001000002002488168027889188160704735
:1005B0001000002010B5002407480168821511437F
:1005C0000160032000F00AF8002801D0012401E0B6
:1005D00000F02CF8204610BD0020024070B5054602
:1005E0000024104E3178002919D07D20C000FFF77B
:1005F000F5FD01460C480068FFF7F0FD00F0FEFD38
:10060000002801D001240BE0042D06D20022294647
:10061000501E00F021F8756002E0012400E0012482
:10062000204670BD100000201C00002008B50948BD
:1006300001680122114301600068104000900548E4
:100640004038C26B01040A43C263C06B084000908B
:1006500008BD00004010024010B501F0DDF810BDEB
:1006600010B50F4C216803225202914301432160CF
:10067000C11FFF39FA390ED10A48062100684843E4
:100680000949FFF7ABFD401C02E0002805D0401EE1
:1006900061694905F9D4002010BD032010BD000098
:1006A000007000401C00002040420F00F8B50446D6
:1006B0000D46002C0FD0544800684007400FA84258
:1006C00018D2514F3868C008C00028433860FFF77F
:1006D00063FF064609E00120F8BDFFF75DFF811BBF
:1006E0004A48814201D90320F8BD38684007400FCD
:1006F000A842F2D12068464E81070DD5400704D5A7
:10070000B068072109030843B060B0680F210902EF
:100710008843A1680843B0602078C0073BD0606878
:1007200001280CD002280FD0002812D038494031BF
:10073000032813D0C969890715D40120F8BD316891
:10074000890310D40120F8BD316889010BD4012040
:10075000F8BD3168490506D40120F8BD096A89074A
:1007600001D40120F8BDB168C908C9000143B160D6
:10077000FFF712FF074607E0FFF70EFFC11B2348F4
:10078000814201D90320F8BDB06838210840616872
:10079000C9008842F0D11C4801684907490FA942A5
:1007A00016D90168C908C90029430160FFF7F4FEA2
:1007B000074607E0FFF7F0FEC11B1448814201D94C
:1007C0000320F8BD104800684007400FA842F1D14F
:1007D0002078400706D5B168072000038143E06810
:1007E0000143B16000F01CF8B1683C228909114056
:1007F000084A515CC906C90EC84007490860074845
:100800000068FFF7EBFEF8BD0020024088130000EF
:10081000001002402C1900081C00002014000020C9
:1008200010B5244CA068244A8006400F16D0A0685A
:100830008006410F501001290FD0A1688906490F89
:10084000022914D0A0688006400F04282CD0A0688C
:100850008006400F03282AD0002010BD2068012107
:100860008004400F81401046FFF7B8FC10BDE168DE
:100870008B079B0FE1684906490F491C032B0CD0DD
:100880001046FFF7ABFCE1684904490E4843E168B4
:10089000490F491CFFF7A2FC10BDFFF79FFCE16860
:1008A0004904490E4843F2E70120C00310BD7D20F2
:1008B000000210BD001002400024F400FEB5044602
:1008C000002C0DD020783827C007F94E002851D0D1
:1008D000B0683840F1688907890F102802D003E01A
:1008E0000120FEBD03290AD0082808D00121606834
:1008F000090488420BD13068084330601AE0306840
:10090000800337D56068002834D10120FEBD05235F
:1009100001221B049204984206D1306810433060D3
:1009200030680843306005E03068884330603068E4
:1009300090433060606800280ED0FFF72DFE05461A
:1009400006E0FFF729FE401B642801D90320FEBD05
:1009500030688003F5D50DE0FFF71EFE054606E082
:10096000FFF71AFE401B642801D90320FEBD306842
:100970008003F5D4207880076DD5B0683840F168E1
:100980008A07920F0721C902102801D1022A12D02A
:10099000002810D0E06800284AD0306888432169D8
:1009A000084330603168FF20013001433160FFF7B8
:1009B000F3FD054630E03268520502D5E268002AB0
:1009C0000AD072687F231B029A4363691B021A4391
:1009D0007260002802D010E00120FEBD306888431C
:1009E000216908433060306801218004400F814054
:1009F000B048FFF7F3FBB0490860B0480068FFF764
:100A0000EDFD002827D00120FEBDFFF7C5FD401BEE
:100A1000022801D90320FEBD30684005F5D5716874
:100A20007F2000028143606900020143716012E08F
:100A30003168FF20013081433160FFF7ADFD05468D
:100A400006E0FFF7A9FD401B022801D90320FEBDE7
:100A500030684005F5D42078994D000734D5B0684A
:100A60008006400F03280AD0A06900281AD0286AFF
:100A7000012108432862FFF78FFD07460EE0286A30
:100A8000800721D5A06900281ED10120FEBDFFF7F7
:100A900083FDC01B022801D90320FEBD286A800700
:100AA000F5D511E0286A400840002862FFF774FD80
:100AB000074606E0FFF770FDC01B022801D903209E
:100AC000FEBD286A8007F5D42078400775D5002040
:100AD0000190B0688006400F042818D0F06BC00069
:100AE00009D4F16B012000070143F163F16B014070
:100AF00000910120019073480168C9051AD401686A
:100B0000821511430160FFF747FD07460EE0E869D3
:100B1000800752D5A06800284FD10120FEBDFFF705
:100B20003BFDC01B022801D90320FEBD65480068BB
:100B3000C005F4D5A068012810D00421052812D0E2
:100B4000E86940084000E861E8698843E861A06816
:100B500000281CD0FFF720FD074614E0E8690121BA
:100B60000843E861F3E7E8690843E861E8690121BF
:100B70000843E861EBE7FFF70FFDC11B52488142D4
:100B800001D90320FEBDE8698007F4D50EE0FFF728
:100B900003FD074607E0FFF7FFFCC11B4A488142FF
:100BA00001D90320FEBDE8698007F4D4019801282B
:100BB00003D1F16B00078143F163E069002845D060
:100BC000B1688906490F022950D001273F06022843
:100BD00006D03068B8433060FFF7DEFC04463DE0E5
:100BE0003068B8433060FFF7D7FC054606E0FFF7F2
:100BF000D3FC401B022801D90320FEBD30688001D0
:100C0000F5D4616A206AA26A0843E16A12021143BC
:100C10000843216B0843F1682C4A11400843F060F7
:100C2000306838433060F068012109070843F060FC
:100C3000FFF7B2FC044606E0FFF7AEFC001B0228FB
:100C400001D90320FEBD30688001F5D544E0FFF7EF
:100C5000A3FC001B022801D90320FEBD30688001DF
:100C6000F5D4F0681A490840F06035E0012831D029
:100C7000F068226A8107890F914216D17021626A59
:100C80000140914211D17F21A26A09020140120262
:100C900091420AD11F214904E26A0140914204D1E4
:100CA000400F216B4007884216D00120FEBD000096
:100CB000001002400024F4001C000020140000205A
:100CC0004010024000700040881300008C80C11F5B
:100CD000FCFFFEEF0120E9E70020E7E7FFB583B066
:100CE00004461E46002725464035687F012801D06E
:100CF0000227ADE06068C11FFD3902D1A06800285D
:100D000028D0287F012830D001202877FFF744FC25
:100D10000290049800282AD00598002827D00420A3
:100D2000687700202066049921640599A9800599B7
:100D3000E980A063A087E087E064206507200121A7
:100D4000E26800020903824213D9206842688A439C
:100D5000426012E004206877049A0096114620460B
:100D6000059B00F040F907B0F0BD0220FBE701272A
:100D70006EE0206842680A4342600122A068D20304
:100D80004021904208D1206802688A4302602068AE
:100D900002680B029A43026020680268520602D47D
:100DA00002680A4302600720E1680002814218D904
:100DB00037E020688168C90709D0007B216C087082
:100DC000206C401C2064E888401EE88009E0FFF7A2
:100DD000E3FB0299401AB04201D3701C05D1002EEA
:100DE00003D0E8880028E4D11EE0032701206877BB
:100DF0002EE020688168C90709D0C068216C08808E
:100E0000206C801C2064E888401EE88009E0FFF721
:100E1000C3FB0299401AB04201D3701C12D1002EBC
:100E200010D0E8880028E4D131462046029A00F02C
:100E300045FB002801D020202066206E002805D028
:100E4000012705E003270120687701E0012068778A
:100E500000202877384686E7FFB583B004461D4654
:100E6000002726464036307F01280AD001203077FF
:100E7000FFF792FB02900599707F012804D00227AA
:100E8000ADE0022007B0F0BD0498002833D00598EB
:100E9000002830D00320707700202066049AA263D7
:100EA000059AA287059AE2872064B080F0802065C9
:100EB000E0640122A068D203904209D12068026850
:100EC00040239A430260206802681B021A430260B2
:100ED00020680268520603D4026840231A43026065
:100EE0000722E0681202904232D96068002804D0DC
:100EF000012902D024E0012771E0A06B216800885D
:100F0000C860A06B801CA063E08F401EE08717E0E4
:100F100020688168890709D5A16B0988C160A06B29
:100F2000801CA063E08F401EE08709E0FFF734FBE0
:100F30000299401AA84201D3681C05D1002D03D0A4
:100F4000E08F0028E4D12EE003270120707746E0EF
:100F50006068002801D0012922D1A06B21680078A7
:100F60000873A06B401CA063E08F401EE08717E071
:100F700020688168890709D5A16B09780173A06B86
:100F8000401CA063E08F401EE08709E0FFF704FBF0
:100F90000299401AA84201D3681C11D1002D0FD02C
:100FA000E08F0028E4D129462046029A00F0C8FAD2
:100FB000002801D020202066A068002804D007E087
:100FC0000327012070770AE02068C16880680190DB
:100FD000206E002801D0012701E001207077002059
:100FE000307738464EE7FFB583B00C9F04460126A4
:100FF0000020019025464035287F012810D001208F
:101000002877FFF7C9FA0290697F6268069801297C
:101010000ED0D31FFD3B08D1A268002A05D102E003
:10102000022007B0F0BD042902D002200190E1E0C7
:101030000499002926D00599002923D00699002972
:1010400020D0697F042901D005216977002121661C
:10105000059A2264069AEA80069AAA80049AA263F4
:10106000069AE287069AA287E16421650723012296
:10107000E1681B021203994207D921684B68934328
:101080004B6006E001200190B4E021684B681343F7
:101090004B6021680A68520603D40A6840231A4349
:1010A0000A600721E26809028A4247D9616800297B
:1010B00001D001283BD1A06B21680088C860A06BDB
:1010C000801CA063E08F401EE08730E020688168CC
:1010D00089070ED5E18F00290BD0012E09D1A16B14
:1010E0000988C160A06B801CA063E08F401EE08770
:1010F000002620688168C9070CD0E988002909D03A
:10110000C068216C0880206C801C2064E888401E28
:10111000E8800126FFF740FA0299401AB84206D348
:10112000781C04D0032001900120687762E0E08FF2
:101130000028CBD1E8880028C8D143E061680029A5
:1011400001D0012838D1A06B216800780873A06B0A
:10115000401CA063E08F401EE0872DE0206881687E
:1011600089070ED5E18F00290BD0012E09D1A16B83
:1011700009780173A06B401CA063E08F401EE087DC
:10118000002620688168C9070CD0E988002909D0A9
:10119000007B216C0870206C401C2064E888401E95
:1011A000E8800126FFF7F8F90299401AB84201D306
:1011B000781C18D1002F16D0E08F0028CED1E888F7
:1011C0000028CBD139462046029A00F0B9F9002810
:1011D00003D00120019020202066206E002807D037
:1011E0000120019006E0032001900120687701E0D2
:1011F0000120687700202877019812E710B5094987
:10120000401E884201D9012010BD074C60610321B6
:10121000081F00F001FB0020A061072020610020D2
:1012200010BD0000FFFFFF0000E000E0FEE77CB51E
:101230000546002400210D2000F0CCFA93202870F0
:101240002020687001A800902B46022229460C201D
:1012500000F063F800280AD10022A95C4C40521C1F
:10126000D2B2042AF9D3A95CA14200D002207CBDED
:101270000EB5502069460871002048718A1D022170
:1012800001A8FFF794F802A8009001AB042201A97D
:101290000C2000F042F80EBD10B500F032F88021AD
:1012A0002A2000F097FAA9212B2000F093FA0321BD
:1012B0002D2000F08FFAE8212C2000F08BFA40213D
:1012C000152000F087FA3D21112000F083FAFFF786
:1012D00068F810BD7CB505460C4607210D2000F0CE
:1012E00079FA257001A800902346012221460C209E
:1012F00000F013F8002802D10199102900D0022033
:101300007CBD10B50F21012000F064FA10BD10B5AE
:1013100008210846FFF778F810BDFFB581B00F46E9
:10132000022000900025002601980C2804D00E28E9
:1013300004D11225102601E0772530262946802089
:101340000143022000F046FA80210420FFF75CF8F8
:1013500080210A2000F0F5F90021012000F03AFA7E
:10136000002404E0395D092000F034FA641C03987D
:101370008442F7D30120019900F02CFA01980C283F
:1013800003D180210D2000F0DCF97D24240104200C
:1013900000F070F80746641E002C03D0F80701D156
:1013A0003742F4D080210D20FFF72EF8002C12D008
:1013B000062000F05FF81B2108420AD100200090AF
:1013C0002F40F80701D00120009001980C2805D08B
:1013D00001E002200090009805B0F0BD0A2000F066
:1013E00049F805460C2000F045F84007400F00285A
:1013F00005D0691EC90009180A98016002E00A9820
:10140000E9000160002D00D10125102D00D9102523
:10141000002405E0092000F02DF804990855641C0B
:10142000AC42F7D3D7E7000030B587B0142102A84B
:10143000FEF7D2FE0D48416B012421434163406B0E
:101440002040019005252D07002239212846FFF76D
:101450009DF839200290039400210491059102A97E
:101460002846FEF7F1FF07B030BD00000010024033
:10147000FEE770477CB58006400E80300090052462
:101480002407002208212046FFF780F8FF25F535C4
:101490002B46012269460848FFF7DEFC2B46012255
:1014A00001A90548FFF71AFC012208212046FFF791
:1014B0006DF8694608797CBD20000020F7B582B040
:1014C00004461546FF2660680536B0420CD101215E
:1014D000A068C903884202D04911884204D120681B
:1014E000016840229143016000950022802120463E
:1014F000039B00F0C7F82027002805D0206E384352
:101500002066032005B0F0BD6068B04216D101210D
:10151000A068C903884202D0491188420ED1032134
:101520000095002249022046039B00F03DF8002868
:1015300004D0206E384320660320E3E70020E1E773
:10154000F8B504460F46154603213B460022C90262
:101550002046009500F028F82026002804D0206EB0
:10156000304320660320F8BD3B4600228021204600
:10157000009500F087F8002804D0206E30432066E4
:101580000320F8BD03213B46002249022046009576
:1015900000F00AF8002804D0206E304320660320B3
:1015A000F8BD0020F8BD0000FFB585B00E9D0446D3
:1015B0000E46174600200190FEF7EEFF411B0898EB
:1015C000451AFEF7E9FF039020680C3002902C4882
:1015D000232100684843000D6843049048E003203D
:1015E0004002864206D1002F04D102980078019073
:1015F000694608790898401C3AD0FEF7CDFF039958
:10160000401AA84205D2002D03D0049800282BD000
:101610002BE020684168E022914341606068C11F6F
:10162000FD390CD10121A068C903884202D04911BB
:10163000884204D120680168402291430160012161
:10164000A06A4903884207D1206802688A43026081
:10165000206802680A43026001204034607700205D
:101660002077032009B0F0BD00250498401E0490A7
:10167000206880683040B842B1D10020F2E7000015
:101680001C000020FFB581B004461E460A9DFEF7EF
:1016900083FF401B351AFEF77FFF07462748006887
:1016A0004001000D684300903BE0701C39D0FEF70C
:1016B00073FFC01BA84205D2002D03D0009800285C
:1016C0002BD02BE020684168E022914341606068A4
:1016D000C11FFD390CD10121A068C903884202D085
:1016E0004911884204D12068016840229143016079
:1016F0000121A06A4903884207D1206802688A4311
:101700000260206802680A4302600120403460776A
:1017100000202077032005B0F0BD00250098401E72
:101720000090206881680298884305D000200399C2
:101730008842BAD10020EEE70120F8E71C00002023
:10174000704770B505460C462846FFF793FE2043C8
:101750000146284600F03EF870BD10B5FEF722FFA6
:1017600010BD30B591B0342104A8FEF735FD00243A
:10177000009401940294039401204002FEF770FF4C
:1017800002250495E80107900894402009900B95E4
:101790000C9510200D900C200E9028040F90052021
:1017A0004007109004A8FFF789F8002801D0FEF741
:1017B00037FE0720009001950294039400216846AB
:1017C000FEF774FF002801D0FEF72AFE11B030BDED
:1017D0007047000033B581B08006400E00900524AC
:1017E0002407002208212046FEF7D0FEFF25F5350C
:1017F0002B46012269460748FFF72EFB2B460122A4
:1018000002A90448FFF728FB012208212046FEF721
:10181000BDFE3EBD200000208307FF22DB0E9A4064
:101820008907090E9940002808DB830809489B00B6
:101830001818036893430B43036070470007000FB9
:101840000838830804489B001818C36993430B4366
:10185000C361704700E400E000ED00E00178CE29AC
:1018600008D14178E32905D18178802902D1C07857
:101870001D2801D00020704701207047FEF79AFE16
:10188000FFF76FFFFFF7D0FD05252D07012231215E
:101890002846FEF77BFEFFF7FFFC6420FEF7C2FD43
:1018A0003720FFF7E7FD1F4C2070002626701E49E9
:1018B0002620FFF70FFD20700028F7D16068401C3C
:1018C00060601948FFF7B3FC20706420FEF7AAFDA2
:1018D000207800280DD16088401C60801248114992
:1018E000027808310A7042784A7082788A70C0782B
:1018F000C8706420FEF796FDFFF7BAFCFFF707FDFE
:1019000008480830FFF7AAFF0028CFD00122102195
:101910002846FEF73BFE012221212846FEF736FE2F
:10192000C4E7000000000020840000200000000048
:1019300000000000000000000000000000000000A7
:101940000000000000000000000000000100000096
:101950000200000003000000040000000600000078
:101960000700000008000000090000008C190008B2
:10197000000000202000000004010008AC1900084D
:1019800020000020D8060000200100080000000010
:101990000000000000000000000000000100000046
:0C19A00004000000000000000024F4001F
:04000005080000C12E
:00000001FF
