:020000040800F2
:10000000380800205901000835280008ED220008B2
:1000100000000000000000000000000000000000E0
:10002000000000000000000000000000A52A0008F9
:100030000000000000000000BD2900083930000861
:100040006B010008000000006B0100086B01000854
:100050006B0100086B0100086B0100086B010008D0
:10006000000000006B0100086B0100086B01000834
:100070006B0100086B0100086B0100080000000024
:100080006B0100086B010008000000006B01000814
:100090006B0100086B0100086B0100086B01000890
:1000A0006B0100086B0100086B0100089534000823
:1000B0006B01000800F002F800F03EF80CA030C818
:1000C000083824182D18A246671EAB4654465D46D4
:1000D000AC4201D100F030F87E460F3E0FCCB64660
:1000E0000126334200D0FB1AA246AB4633431847E1
:1000F000604B0000804B0000103A02D378C878C1F2
:10010000FAD8520701D330C830C101D504680C6059
:10011000704700000023002400250026103A01D378
:1001200078C1FBD8520700D330C100D50B607047AF
:100130001FB51FBD10B510BD01F038F91146FFF70E
:10014000F7FF03F053FC01F050F903B4FFF7F2FF9F
:1001500003BC01F0A3F900000748804707480047A7
:10016000FEE7FEE7FEE7FEE7FEE7FEE70448054997
:10017000054A064B70470000DB300008B500000858
:1001800038020020380800203804002038040020FD
:10019000FEB5054610460C46184373D0AE468C4655
:1001A0000020AD1A01469C4167D366460027012412
:1001B0003D46B61A9D4102D313463A462124654670
:1001C00076462F04360C3E432D0CB61A9D4104D3BF
:1001D000150C1B042B4312041034654676462F067B
:1001E000360A3E432D0AB61A9D4104D3150E1B0252
:1001F0002B4312020834654676462F0736093E43E4
:100200002D09B61A9D4104D3150F1B012B43120172
:10021000241D65467646AF07B6083E43AD08B61ABC
:100220009D4104D3950F9B002B439200A41C65466F
:100230007646EF0776083E436D08B61A9D411AD3FD
:1002400092185B41641C16E00018764665464941E9
:10025000B71A9D410191009009D36046B11A9841A7
:100260008E468446009801990025401C6941DD07AF
:1002700052082A435B08641EE6D57246634603B003
:10028000F0BDFFE700200146C046C0462A4623468F
:10029000F5E701E004C0091F0429FBD28B0701D553
:1002A0000280801CC90700D00270704700290BD063
:1002B000C30702D00270401C491E022904D38307E1
:1002C00002D50280801C891EE3E70022EEE70022AF
:1002D000DFE7002203098B422CD3030A8B4211D3A0
:1002E00000239C464EE003460B433CD400224308C7
:1002F0008B4231D303098B421CD3030A8B4201D3B7
:1003000094463FE0C3098B4201D3CB01C01A52414E
:1003100083098B4201D38B01C01A524143098B429E
:1003200001D34B01C01A524103098B4201D30B0187
:10033000C01A5241C3088B4201D3CB00C01A5241AC
:1003400083088B4201D38B00C01A524143088B4271
:1003500001D34B00C01A5241411A00D2014652410A
:10036000104670475DE0CA0F00D04942031000D329
:100370004042534000229C4603098B422DD3030A7E
:100380008B4212D3FC22890112BA030A8B420CD38E
:10039000890192118B4208D3890192118B4204D3B7
:1003A00089013AD0921100E08909C3098B4201D337
:1003B000CB01C01A524183098B4201D38B01C01A71
:1003C000524143098B4201D34B01C01A52410309E8
:1003D0008B4201D30B01C01A5241C3088B4201D397
:1003E000CB00C01A524183088B4201D38B00C01A44
:1003F0005241D9D243088B4201D34B00C01A52411B
:10040000411A00D20146634652415B10104601D3A7
:100410004042002B00D54942704763465B1000D331
:10042000404201B50020C046C04602BD704770473B
:10043000704700000246C80FC00781434B0030B52B
:100440004B405B009B0D20D01923DB06C91801230C
:100450001B05994220DB0324A40704251346AB4067
:100460000BD3002B04D1EB0613409B00E34204D4D2
:1004700001246407002312195941FF231B059942E7
:100480000BD2C9000143500F09E0CB0204D5014350
:100490000803024305D0054830BDFF21C9050843C4
:1004A00030BD084607210905884330BD0000C07FE4
:1004B000F0B50C46871A9C410D46861A9D4103D221
:1004C000C01BA141D21963410D0D1F0DC94EEC1B7C
:1004D000AE435CD07F057F0D0026002F51D02D0547
:1004E000AC46A943DD020123ED0A1B051D43202371
:1004F0001B1B24D41746E740381871412F46E740AC
:10050000CC199D402818314661410C0D27D161441A
:100510009A4013D50023401C594152000ED1400887
:10052000400001224B005205D34207D3052040076B
:10053000C14201D5B04900E0B0493046F0BD6B0082
:10054000002A00D001229A181F23203C1B1B01D532
:10055000002302E0E540281871410C0DD7D001249A
:1005600024050919C407CD0740084908E40F2843AA
:100570006144002CD5D00024401C61419A40D0D168
:10058000CDE76A05520DD9D1C90FC907D5E79C4DF2
:100590004E00002801D0012400E0002434195F003F
:1005A000002A01D0012600E00026BE19954FAC427A
:1005B0000CD8AE420AD8B44206D001256D05EC42F3
:1005C000BCD010461946F0BD9942FCD000203946F7
:1005D000F0BDF0B51FB40C460F46811A9F41254669
:1005E000861A9D4106D20125ED076F40401ABC4195
:1005F00052187B41210D1E0D8D1BAC467D4D8D4348
:100600007ED075056D0D7CD00D05AE46AC431B0349
:100610001B0B794D52429D41202366469B1B14D3F0
:100620001746F740381800260090744160462F4660
:100630000741E41900989D402818664116D4714678
:1006400071189A4025D5012320E093182A466A4163
:100650005200002B00D0521C1E23203E9B1B002B5F
:1006600061DD3541EE1728186641E8D5001876415E
:100670005B1C9A4000D3401C4B05F3181524E34043
:1006800010D3002B52D071467118D30FC01802D36B
:10069000491C05B0F0BD0123DB079A42F9D140089F
:1006A0004000F6E701225205B21801D1002853D0CC
:1006B0000123CC0ADB029943891E002A08D1020CCF
:1006C00003D0020C0004103902E002460020203959
:1006D0000023550B05D112020823550B01D15201FD
:1006E0000D23550C01D112011B1DD50C01D1920017
:1006F0009B1C150D01D152005B1C2025EE1A01E058
:100700002CE022E00546F54015439840CA1AE1075F
:1007100069181305C918002ABBDA03204007081816
:10072000C10FC9070FE071466118B2E7F107400831
:100730000843711071444A000CD001235B059A42B2
:10074000A7D2C90FC9070020A3E74905490D26D143
:10075000002001E00028F4D100219AE7284D66002E
:10076000002801D0012100E0002171185F00002A5B
:1007700001D0012600E00026BE19224FA94210D860
:10078000AE420ED8B14208D001256D05E94206D02F
:100790001946A802414010467BE79C4201D0214601
:1007A00077E70020394674E710B50C465C4005D564
:1007B0000124E4076340FFF70CFF10BDFFF778FE4C
:1007C00010BD30B40C465C4004D50124E4076340FE
:1007D00030BC6DE630BCFCE670B50124E407614036
:1007E0000D465D4002D4FFF763FE70BD6340FFF726
:1007F000F0FE70BDFF0700000000F0FF0000F07F7A
:100800000000E0FF0000F87FF0B5F94D0C091E096B
:100810002C402E402F468BB0A7437DD0B543FCD053
:10082000002E7AD0002CFCD00D465D40ED0F254304
:10083000AC1BFF25AD0464190894C502440DC90220
:100840002143500DDC0204430120C007014304434F
:10085000D2020191200C110C00958C460104234614
:100860008B430A9161460904E24D8A430991010ACA
:100870007D4449198039097805464D4301266D1894
:10088000F605751B6943C90C640B891C4C4364183D
:10089000B5012C1B250C2E04B4434C434D43210CB5
:1008A000691889090591009DE90701D00121C9074F
:1008B00004912C4601996708CD072F434C08059DEC
:1008C000E10B4D432D0C29466646754302950D46B6
:1008D00045432E46029D7D1BB44100950D465D4368
:1008E00001942C0C2F040D465543AE462D0C3D4370
:1008F000029503947546049C2D04641B049406D24F
:10090000029C039D641C002675410395029401AC72
:1009100070CC009F7D1B01E03EE162E1B44109041F
:100920000095079101940599A4086143090C0C46B0
:100930004443650BE7040C4666467443A646640BC5
:100940003C43039502947446049DE4042C1B0494D8
:1009500006D2029C039D641C0026754103950294F7
:1009600001AC70CC009F7D1BB44101940C465C43EC
:100970000095650FE7000C465443A646640F3C43C0
:10098000039502947446049DE4002C1B049406D243
:10099000029C039D641C002675410395029401ACE2
:1009A00070CC009F7D1BB441AE09AF06049DC90009
:1009B000AD092F43049DA406AD060495079D34435D
:1009C00069180791059DE10B4D432D0C294666469C
:1009D000754302950D4645432E46029D7D1BB4414D
:1009E00000950D465D4301942C0C2F040D46554394
:1009F000AE462D0C3D43029503947546049C2D0490
:100A0000641B049406D2029C039D641C002675415D
:100A10000395029401AC70CC009F7D1BB4410194FE
:100A20008C050694079C890A611800950791019C22
:100A30000599A4086143090C0D464543680BEF0472
:100A40000D46644665436C0B3C43049FED047D1BDF
:100A5000AC4602D20025641C6841009E019D371BF4
:100A600085410846584301950C46460FC50054433E
:100A7000600F28436546E4002C1B02D20025401C71
:100A80006E41019D3F1AB5412846BD0980062843A5
:100A90008446A009BF064E020699A40676180743AD
:100AA000079D002068410A99079019430020099B7F
:100AB00000906046FF1913434041E20F64003A433F
:100AC000A4460446D71A8C41A04203D901200090C5
:100AD00020463A46C70F941840416246D20F22433F
:100AE000644664000494009CBE466400D71AA44681
:100AF000044602978C417746002F01D1A04204D9C9
:100B00006046401C8446029A2046C40FA6469418AC
:100B10004041049A0546D20F224364466400D31A2A
:100B20008D417146002901D1A84202D928461A46B2
:100B3000641C10430122002800D0164361020020EB
:100B4000079B891904465C410223002C02DB4918EB
:100B500013466441089DCE0A2D145D194B056705A7
:100B6000E10A2C050D1908993E43C9076940002B7D
:100B700008D0934006D30022761C5141002B01D1AE
:100B8000760876001C4A002D43DB154241D0AA436B
:100B90003FD030460BB0F0BD06180D464D41174C06
:100BA0007642AC411AD395181C465C41134A6D42FB
:100BB000A24113D3012252054C00D4420AD15C0059
:100BC000D4420BD04B4002D592021143E2E74900D8
:100BD0004908DFE75940C90FC90718E00020084954
:100BE000D8E7054801420DD10342F7D0F2E70000F3
:100BF0000000FF07F44100000000F07F0000E0FF6C
:100C00000000F87F114859400143C01241400020C4
:100C1000C0E70123089A9B069A4205DC032252078B
:100C20008918C90FC907B5E7052252078918074A6D
:100C30001143D2125140ADE770B515461C4602462D
:100C40000B4628462146FFF7DFFD70BDFFFFFF7F03
:100C5000F0B58B4C0F09254689B0BD437BD01D09EB
:100C60002646AE43FAD00E465E402740F60F3E437E
:100C7000254071D024012142FBD0FF24AD19A404EA
:100C80002D1B039501252D05DB02DB0AC9022B4331
:100C9000C90A29431E010901040F130F050121434D
:100CA0001701880B820391432D098C46A90B1E4323
:100CB0008A039543B30B9A0396433F09BA0B9403F7
:100CC000A74302962E467E430497B6464E19D7197F
:100CD0000C460196544305977E43371B7646BF1B4F
:100CE0003601B646BE0B361900967646BC04371957
:100CF000009C01D3641C00946400002F01D00126E5
:100D00003443029E049F754366467E4304967600F4
:100D100034196E0034190094029C019E1C1966431C
:100D2000751BAE46069465464519059C05956C43B2
:100D3000594375460891691A0191049E0146514331
:100D4000A41B0491611A009C0791E10605D061097A
:100D50000122114302E072E06EE06109089D002764
:100D60002C0A2D066918049D7C412A0A2D06691853
:100D7000019D6241AC0DAD026D185441079A910D71
:100D8000920255196141029A644658435443069BA6
:100D9000059A5A43121A131B9A0E9B015B187A414B
:100DA000010B0005C3185141220A200644195A417B
:100DB0009A4200D2491C01204002814203D31523EC
:100DC0000226F64302E014230326F6432020C51A28
:100DD000A9401746AF40DA400A4320460399D8405D
:100DE0000914731819055118039A3843D207514052
:100DF000AC4009D00122944006D30022401C51414E
:100E0000002C01D1400840001E4A934212D3012217
:100E100003989206904207DB0520400709181A48FC
:100E20000143C012414004E0032040070818C10FED
:100E3000C907002009B0F0BD0020F107FAE7051846
:100E40000C464C4111486D42A04115D394181A46E6
:100E50005A410E48644290410ED301204A00400599
:100E6000824209D35A00824206D35940C90F084A28
:100E7000C90700201143DDE700200649DAE700003A
:100E80000000FF07FE070000FFFFFF7F0000E0FFFC
:100E90000000F07F0000F87F70B505464800440D63
:100EA000124B0020002C0AD0634008D09A4206DA88
:100EB0006642B24203DD12054019514170BD002C5B
:100EC00008D0002B09D0C90FC907002AF6DB084A51
:100ED000114370BDC90FC90770BD28460A031043EE
:100EE00002D00020034970BD284670BDFF070000F6
:100EF0000000F07F0000F87F0121C905012341189F
:100F000042001B06D3185B0E0AD0C1100722D2067E
:100F1000891840075242D14201D5520089187047C2
:100F2000090208D50146002A03D0C10FC9070020D5
:100F3000704710467047420202D0002002497047B5
:100F4000072109050143F4E70000F87FF0B5FF250C
:100F50002D04C609C209FF2704462E400137CB09DC
:100F60003E4348402A402B400746002A6BD0002BC6
:100F700069D0AA4267D0AB4265D0002800DA324679
:100F80000125ED0529432C4309022002090AD21A42
:100F90004B0C7F24E31A434C000A7C44E35C7D2421
:100FA0002404121914145B00A218884201D3521CA5
:100FB00000E0400049420C465C4324115C43DB01E5
:100FC0006415E318040A5C43C502200D0C46444333
:100FD0006419250A5D432303EC0C0D4665430003A9
:100FE0000019EB184C42A34201D35B18401CD405F6
:100FF0002018002B07D05B00C91804D3401C00291F
:1010000001D1400840003F2189048A4209D3002AC7
:1010100008DC1106090F04D0032149074018C00F4E
:10102000C007F0BD01224100120689187F22520636
:101030009142F6D205214907C84201D59010F0BD72
:10104000FF20C005F0BD002F00DA32461648AA4244
:1010500007D2AB4205D21902090E17D0F80FC0070C
:10106000F0BDFF2563002D06AB42F9D84900A94227
:10107000F6D8AB4201D1A942F2D0A94201D1002158
:1010800001E061004908D0050843F0BD1102090ED6
:10109000FBD0FF200243D005F0BD0A4601461046B2
:1010A00054E700004A3B00000000C07F10B5014635
:1010B0009E240002CA15A307002A02D01843002A62
:1010C00004DBA21A002A0CDDD04010BD1206120E5D
:1010D00001D140004008A21A03D4D0404042002869
:1010E000F3DDFF2248001206904201D9002010BD16
:1010F000C817C043584010BD1F22030C02D10F2255
:1011000000041CD0030E01D10002083A030F01D1E4
:101110000001121F830F01D18000921E002801DB05
:101120004000521ED2055118021251181922904047
:1011300004D3491C002801D14908490008467047DA
:10114000C10FC90700D04042012292071143D3E7E3
:1011500001218907D0E7000010B5FF22C30D13401D
:1011600009D05A4007D0914205DA5C42A14202DD23
:10117000C905081810BDC40FE407002B06D0002ACB
:1011800006D0002902DBFF20C0050443204610BD25
:101190004102FCD0004810BD0000C07F10B500F037
:1011A000B5F8006810BD10B5044600F0AFF8046053
:1011B00010BD1F22030C02D10F22000402D0030E27
:1011C00003D004E00020014670470002083A030FF4
:1011D00001D10001121F830F01D18000921E00284F
:1011E00001DB4000521E120551184205C012411881
:1011F00010467047C10FC90700D040420122920734
:101200001143D6E701218907D3E70000F0B53D4B34
:1012100002460C461C400020002C63D03A4D8B4304
:1012200066D000296BDB0B0D1D05A94301252D059B
:1012300029430124FD33E34001D392184941FF3390
:1012400081339C468B02940D0121234389074C4234
:10125000920200271B198C105D1A04D42D1B02D496
:101260002B466500491992185B416408F4D15C1A59
:1012700008D40125ED07EE175519744102D42A460A
:101280002346491C94185B41012292071D46E61B28
:101290008D4106D4B61A854103D42B4655003446F9
:1012A0007F1924195B415208802AEFD1234300D0D3
:1012B000022338460A22D04001D3012213438A0573
:1012C00010436246890A12058918002B09D00122B1
:1012D000D34002D30022401C5141002B01D14008D1
:1012E0004000F0BD0B03134307D0C90FC907F0BD81
:1012F0000803104303D1002901DB1046F0BD002094
:101300002946F0BD0000F07F0000F87F00487047DC
:10131000D8010020F8B5224C4E00069DA6420AD8FE
:10132000A64201D1002806D15E00A64203D8A642FB
:101330000AD1002A08D00D24240425422CD02946A5
:10134000002000F05AF8F8BD0C461C430CD499421A
:1013500002D0EFF30080F8BD904202D0EFF300809E
:10136000F8BDEFF30080F8BD09242407E5008B42A7
:1013700006D0EFF30080A043591A06D2284304E0B8
:10138000101A05D3EFF30080A04380F30088F8BD66
:10139000EFF30080A043F1E7009500F045F8F8BDB9
:1013A0000000E0FF00487047D80100207546FFF7B5
:1013B000F9FFAE46050069465346C008C0008546A1
:1013C00018B020B5FEF7D2FE60BC00274908B6462B
:1013D0000026C0C5C0C5C0C5C0C5C0C5C0C5C0C544
:1013E000C0C5403D49008D46704710B50446C04613
:1013F000C0462046FEF7A9FE10BDC80212D548031C
:10140000400F002804D0C803C04301218840704722
:10141000EFF300800001000903210907084380F36E
:10142000008870470020704710B500200249029ADA
:1014300000F004F810BD00000000F87F10B50C4665
:101440001107090F092904D00A290AD008290CD14B
:1014500004E011460820FFF7D0FF06E0510606D54C
:1014600001E0510601D50120C007214610BDD1067B
:1014700007D501010909CC084907000E00060443FD
:1014800009E0410F20024907000A0143200E00062F
:101490001D22D14101430846E7E700000149182019
:1014A000ABBEFEE7260002007047002808D00128E6
:1014B0000CD0022807D0032801D17320C005704743
:1014C0007120C00570473920000670471D20400676
:1014D00070470000002807D0012807D0022807D055
:1014E000032800D1034870470348704703487047FA
:1014F0000348704700007A3D0000FA3B00007A3C48
:101500000000FA3C70B5044600F0E6F80546601CA1
:1015100002D004480078241800F0DEF8401BA042F6
:10152000FAD370BD54000020F8B500230324012530
:10153000BAE02E469E40B44632407CD00E79B607C3
:10154000B60F012E01D0022E17D186682746B64667
:101550005E00B74000967646BE43B646CF68009E12
:10156000B74076463743876046686746BE430F7983
:10157000FF06FF0F9F40374347600E79F643B607DB
:101580000ED0C6682746B4465E00B646B7406646EB
:10159000BE43B4468F687646B74066463743C76059
:1015A0000E79B607B60F022E14D1DE08B600361833
:1015B0000096366A5F07B446FE0E0F27B646B74060
:1015C0006646BE43B4460F697646B7406646374323
:1015D000009E376206682746B4465E00B646B740AE
:1015E0006646BE430F79B446BF07BF0F7646B74085
:1015F0006646374307604E68B603B60F53D02D4F8B
:10160000BE692E43BE61BE699F08F607F60F2A4EDB
:10161000BF00BE190096B6680F27B4469E07360F66
:10162000B646B7406646BE430927FF06B446B842F1
:1016300002D1002710E036E0204FB84201D1012747
:101640000AE01F4FB84201D1022705E01D4FB84202
:1016500001D1032700E005277646B74066463743A9
:10166000009EB760184EB6684F689643FF0200D5DB
:101670001643154FBE60FE684F689643BF0200D503
:101680001643114FFE607E684F689643BF0300D536
:1016900016430D4F7E603E684F689643FF0300D5AA
:1016A0001643094A16605B1C0A681646DE4000D0E5
:1016B0003FE7F8BD00100240000001400004004870
:1016C00000080048000C004800040140002A01D036
:1016D00081617047816270470148806870470000EF
:1016E0005400002070B5024640325378202B1CD1A4
:1016F0001378012B19D0012313702424547004682B
:1017000025689D432560046825681E03B543256050
:10171000046825680D43256000680168194301606D
:10172000202050700020107070BD022070BD70B578
:10173000024640325378202B1BD11378012B18D04E
:10174000012414702423537003681D68A5431D6091
:1017500005682B680F263602B34309021943296036
:101760000068016821430160202050700020107043
:1017700070BD022070BD000070B5040006D0254683
:10178000403568780026002802D005E0012070BDB1
:101790002E70204600F09CF92420687020680168B3
:1017A0004908490001600F216068090688432168E3
:1017B000086121688A680120C00382438A60E16869
:1017C0000129A1682FD02122920211432268916041
:1017D0000121E268C902022A2268536825D08B439E
:1017E000536021684A68124B1A434A602168CA68EC
:1017F0008243CA60616920690843A16909020843FC
:101800002168C860216AE06908432168086020688F
:10181000016801221143016066642020687026631C
:10182000AE70002070BD0143D0E70B43D8E7000045
:1018300000800002FFB5054604464035687883B055
:10184000202873D10C98002814D00D98002811D0AE
:10185000287801286AD001202870FFF73DFF07464D
:10186000012200901923D103204600F04FFE0028EA
:1018700072D103E00120400260646DE022206870B4
:101880004020A870002666640C9860620D98608500
:1018900066630E980090019704A90EC9204600F0D7
:1018A000BFFD002801D02E7056E0618D3348FF291E
:1018B00004D9012222851306009006E0618D21855E
:1018C0000090208D0123C2B25B062046049900F0EF
:1018D00007FE00970022042120460E9B00F016FE12
:1018E000002839D12068406A616A0870606A401C2B
:1018F0006062208D401E81B22185608D401E608512
:10190000608D00281ED000291CD100970022802164
:1019100020460E9B00F0FAFD00281DD1608DFF28A7
:1019200005D9012222851306009607E024E0608D88
:1019300020850096208D0123C2B25B0620460499C3
:1019400000F0CEFD608D0028C3D13A4620460E99A6
:1019500000F015FE002802D0012007B0F0BD21687C
:101960002020C86121684A68054B1A404A606870A7
:10197000AE702E700020F0E70220EEE70024008019
:1019800000E800FEFFB5054604464035687883B0A0
:10199000202872D10C98002814D00D98002811D05E
:1019A0002878012869D001202870FFF795FE0746A6
:1019B000012200901923D103204600F0A7FD002842
:1019C00071D103E00120400260646CE02120687066
:1019D0004020A870002666640C9860620D986085AF
:1019E00066630E980090019704A90EC9204600F086
:1019F00047FD002801D02E7055E0608DFF2805D9E5
:101A0000FF22228501231B06009606E0608D2085BB
:101A10000096208D0123C2B25B062046049900F097
:101A20005FFD3A4620460E9900F0D4FD00283AD1D9
:101A3000606A216800788862606A401C6062608D1C
:101A4000401E6085208D401E80B22085618D00295A
:101A50001FD000281DD100970022802120460E9B18
:101A600000F054FD00281ED1608DFF2806D9FF220A
:101A7000228501231B06009607E024E0608D208567
:101A80000096208D0123C2B25B062046049900F027
:101A900027FD608D0028C4D13A4620460E9900F0FB
:101AA0006EFD002802D0012007B0F0BD2068202183
:101AB000C16120684268054B1A4042606970AE708F
:101AC0002E700020F0E70220EEE7000000E800FEA4
:101AD00010B586B0044614216846FEF7F8FB12499B
:101AE000206888421ED1114C6169012080040143A5
:101AF0006161616901400591C02000901220019050
:101B000000200290032003900120049069460848B9
:101B1000FFF70AFDE169012040050143E161E16948
:101B20000140059106B010BD005400400010024075
:101B30000004004802488168027889188160704773
:101B40005400002010B506480168102211430160BE
:101B5000032000F007F800F027F8002010BD000077
:101B60000020024070B504460D4D7D202978C0004C
:101B7000FEF7AFFB01460B480068FEF7AAFB00F03A
:101B80002DFB002809D1042C07D200222146401E3B
:101B900000F02AF800206C6070BD012070BD0000CC
:101BA000540000206000002008B508488169012227
:101BB00011438161816911400091C26901040A43A6
:101BC000C261C0690840009008BD000000100240DA
:101BD000002805DBC106C90E0120884001490860C4
:101BE0007047000000E100E010B501F08DFC10BD71
:101BF000F8B505460068354CC00352D5E0690026AB
:101C0000C00007D4E16920040143E161E1690140BA
:101C1000012600912E480168C90510D4016882157B
:101C200011430160FFF758FD074604E0FFF754FD3C
:101C3000C01B642824D826480068C005F6D5206A51
:101C400003273F02384020D06968394081421CD0C8
:101C5000206A226AB843012109040A432262226AE7
:101C60008A4322622062C0070FD0FFF735FD009043
:101C700008E0FFF731FD0099411A1648814201D969
:101C80000320F8BD206A8007F3D5206A6968B8434D
:101C900008432062002E04D0E1690120000781433F
:101CA000E1612878C00705D0206BA9688008800012
:101CB000084320632878800605D5206B10218843CF
:101CC000E968084320630020F8BD000000100240CE
:101CD0000070004088130000F8B50F46060059D088
:101CE0003A4D2868C007C00FB84209D2286840089A
:101CF0004000384328602868C007C00FB84249D167
:101D00003068334C81070CD5400704D56068072143
:101D10000902084360606068F0218843B1680843A5
:101D200060603078C00726D0706801280ED0216826
:101D300002280ED0890700292CDA616889088900F9
:101D400001436160FFF7C8FC00900DE02168890342
:101D5000F1E78901EFE7FFF7BFFC0099411A1D4841
:101D6000814201D90320F8BD60680C2108407168E8
:101D700089008842EFD12868C007C00FB8420BD94C
:101D8000286840084000384328602868C007C00F12
:101D9000B84201D00120F8BD3078400706D5606810
:101DA000072109028843F1680843606000F028F8C1
:101DB0006168094A0906090F515CC8400749086073
:101DC0000320FFF7CFFE0020F8BD000000200240F6
:101DD0000010024088130000504A000860000020F4
:101DE0000448054900684968044A4905490F515C9F
:101DF000C84070476000002000100240604A0008A0
:101E000010B5104A51680C200B4603400E48042BB5
:101E100017D0082B15D18B020C4C1B0FE45CD26A37
:101E20000A4B1207120F10339A5CC90305D5002321
:101E30001946FEF7ADF9214601E02046044901F0BC
:101E400035FB10BD0010024000127A00304A000835
:101E500000093D00FEB5040070D02078DC4DC007BD
:101E60004AD068680007800F012807D0686800071B
:101E7000800F022809D16868C00306D5286880034E
:101E80003AD560680028E7D036E06168012914D0AF
:101E900001208004002901D0052914D02A680121DD
:101EA00009048A432A602968814329606068002800
:101EB00016D0FFF711FC06460EE028680121090440
:101EC00008432860F2E7296801432960F5E7FFF736
:101ED00003FC801B64286ED828688003F7D50BE0CC
:101EE000FFF7FAFB064604E0FFF7F6FB801B6428C9
:101EF000F1D828688003F7D42078012680070028CD
:101F00003CDA68680007800F07D068680007800F18
:101F1000022809D16868C00306D42868800716D54E
:101F2000E06801280AD112E0E0680028286816D08D
:101F300030432860FFF7D0FB074605E043E1FFF799
:101F4000CBFBC01B0228C6D828688007F7D52868B5
:101F5000F82188432169C900084328600EE0400841
:101F600040002860FFF7B8FB074604E0FFF7B4FB2A
:101F7000C01B0228AFD828688007F7D42078000754
:101F800022D5E0690028686A0ED030436862FFF706
:101F9000A3FB074604E0FFF79FFBC01B02289AD86B
:101FA000686A8007F7D50FE0400840006862FFF7D5
:101FB00093FB074605E09DE0FFF78EFBC01B022860
:101FC00089D8686A8007F7D420780427400700285A
:101FD00060DA00200190E869C00008D4E969B80619
:101FE0000143E961E96901400120009101907948CC
:101FF0000168C90511D40168821511430160FFF71A
:102000006BFB009005E0FFF767FB0099401A64281E
:1020100070D870480068C005F5D5A06801280AD0BE
:10202000002801D0052810D0286A40084000286206
:10203000286AB84301E0286A30432862A068002873
:1020400012D0FFF749FB00900AE0286A3843286263
:10205000F1E7FFF741FB0099411A5F48814249D8F7
:10206000286A8007F5D50DE0FFF736FB009006E003
:10207000FFF732FB0099411A574881423AD8286A43
:102080008007F5D40198002804D0E96901200007F1
:102090008143E9612078C00635D5606901280CD0FC
:1020A000401D686B23D038436863686B400840006C
:1020B0006863FFF711FB064622E0686B38436863EC
:1020C000686B30436863FFF707FB064604E0FFF7E1
:1020D00003FB801B02285BD8686B8007F7D5686B11
:1020E000F8218843A169C900084368630BE0B8433D
:1020F0006863F4E74CE0FFF7EFFA801B022847D84B
:10210000686B8007F7D4206A00285ED069680907E9
:10211000890F022942D0012636060228286805D0F8
:10212000B0432860FFF7D8FA044633E0B043286094
:10213000FFF7D2FA074604E0FFF7CEFAC01B0228E9
:1021400026D828688001F7D4E86AE16A000900010E
:102150000843E862616AA06A084369683D22120484
:10216000914308436860286830432860FFF7B4FA59
:10217000044604E0FFF7B0FA001B022808D82868DC
:102180008001F7D521E0FFF7A7FA001B022801D94B
:102190000320FEBD28688001F5D416E00128F8D0A0
:1021A0006868E96A01221204636A02409A420AD10D
:1021B0000907E26A090F914205D10F2189040840FD
:1021C000A16A884201D00120FEBD0020FEBD0000B2
:1021D000001002400070004088130000094910B54B
:1021E000401E884201D9012010BD074C60610321C7
:1021F000081F01F089F90020A0610720206100205C
:1022000010BD0000FFFFFF0000E000E010B504007B
:1022100003D0E06F002802D007E0012010BD0021AC
:1022200078200155204600F027F82420E067206838
:102230000168490849000160606A002802D0204610
:1022400000F04CFF204601F041F80128E6D020685C
:1022500041680122D20291434160206881680822CE
:10226000914381602068016801221143016020468A
:1022700000F09AFF10BD000010B586B0044614218E
:102280006846FEF724F817492068884227D1164887
:102290008269012189030A43826182690A400592A9
:1022A0004269C9000A434261406908400590032021
:1022B0004002009002200190002002900320039031
:1022C0000120049009206946C006FFF72DF900227D
:1022D00001211B20FFF788FC1B20FFF779FC06B0CB
:1022E00010BD00000038014000100240FEE7016808
:1022F0008A69D243920701D400228A620068816908
:10230000C943C90703D08169012211438161704724
:10231000F7B50446006882B0816900262746C906E1
:10232000403735460092002945DA1021C16132E07C
:102330000398401C2FD0FFF7CFF90099411A03985A
:10234000814201D8002826D12068416801229203E9
:102350001140BA788369DB431B0417D401239B0324
:10236000994213D0202A11D0416819434160FFF7E8
:10237000B3F900900AE0FFF7AFF901460098081A98
:10238000192803D920200543012604E0206880692C
:10239000C0438006EFD420688069C043800602D520
:1023A000002EC5D004E0002E02D121682020C86193
:1023B00004200543012621688869C20504D501224D
:1023C00015431202CA610126410508D508210D43B3
:1023D000CA012168CA610126800502D40AE080058D
:1023E00006D50220054321680002C861012601E0EC
:1023F000002E0FD02046FFF77AFF20684168074A79
:1024000011404160606C2843606420207870002097
:10241000B8703870304605B0F0BD000000E800FE2E
:10242000F8B50446164615481D46DAB20090079FD7
:102430000023204600F054F83A462046069900F062
:10244000C9F8002818D12846F5B2012809D021681A
:10245000300A88623A462046069900F0BBF8002808
:102460000AD1206885620097002240212046069B01
:1024700000F04CF8002800D00120F8BD00200080BA
:10248000F8B50446164615481D46DAB2C302009058
:10249000079F204600F024F83A462046069900F0AF
:1024A00099F8002818D12846F5B2012809D02168EA
:1024B000300A88623A462046069900F08BF80028D8
:1024C0000AD1206885620097002280212046069B61
:1024D00000F01CF8002800D00120F8BD002000808A
:1024E000890510B5890D12041143029C1943026835
:1024F0002143490050684908630D034C2343984326
:102500000843506010BD0000FF63FF03F8B51D468F
:1025100017460E46044626E029462046069AFFF74F
:10252000F7FE002801D00120F8BD681C1BD0FFF782
:10253000D3F80699401AA84201D8002D13D120687B
:102540008169304688430CD00020B8420BD1616CC1
:10255000202001436164403460700020A07020702E
:10256000E1E70120F1E7206881693046884304D023
:102570000020B842D0D00020F8BD0120F9E770B5A6
:1025800016460D4604461EE0324629462046FFF711
:10259000BFFE002801D0012070BDFFF79DF8801B11
:1025A000A84201D8002D0ED120688069C043800662
:1025B00009D5616C202001436164403460700020C3
:1025C000A0702070E7E720688069C0438006DBD4F4
:1025D000002070BD70B516460D46044620E0324618
:1025E00029462046FFF794FE002801D0012070BD47
:1025F000681C15D0FFF770F8801BA84201D8002D89
:102600000ED120688069C043800709D5616C202005
:1026100001436164403460700020A0702070E5E7E1
:1026200020688069C0438007D9D4002070BD0000B5
:10263000FFB5394C83B08020207001251F466426E9
:1026400020462B460B22D421E838029601950094AF
:10265000FFF798F905980399000189000843801C49
:102660002070204601231022D421E83802960195DB
:102670000094FFF787F90499380189000843207016
:102680006F4670C7204601231122D421E838FFF796
:1026900079F96F4670C7204601231222D421E83809
:1026A000FFF7C8F820784421084320706F4670C7B0
:1026B000204601231222D421E838FFF763F90820CD
:1026C00020706F4670C7204601231322D421E838BA
:1026D000FFF758F9202020706F4670C7204601236D
:1026E0001722D421E838FFF74DF925706F4670C7DF
:1026F000204601230D22D421E838FFF743F90220B8
:1027000020706F4670C7204601230E22D421E8387E
:10271000FFF738F907B0F0BD6401002030B587B08D
:1027200014216846FDF7D3FD184842690121490488
:102730000A43426142690A400592426949000A43DC
:102740004261406909250840ED06059000220421F8
:102750002846FEF7BBFF0122D1022846FEF7B6FF4E
:102760000B48012100246A4613C20391694628469A
:10277000FEF7DAFE012040020090019469460294BF
:102780000448FEF7D1FE07B030BD00000010024043
:10279000040800000004004810B513481149016006
:1027A0001249416000218160016141618161012222
:1027B000C161C2600162FEF7DFFF002801D072B67E
:1027C000FEE700210848FEF78DFF002801D072B611
:1027D000FEE700210448FEF7AAFF002801D072B6E8
:1027E000FEE710BD005400407C0000202B1D20009F
:1027F00010B50F4C0D482060E120400260600020C1
:10280000A060E0602061A061E0610C212062616154
:1028100060622046FFF7FAFC002801D072B6FEE79E
:102820002068016820221143016010BD003801407A
:10283000D0000020FEE70000F0B506468FB0002073
:102840000C460B900C900D900E901C216846FDF7E5
:102850003EFD7D204001FEF755FE00250BA800F04F
:10286000AFF868462E22825E01998818019068466A
:102870003022825E02998818029068463222825E77
:1028800003998818039068463422825E0499881858
:10289000049068463622825E05998818059068463D
:1028A0003822825E0699881806903220FEF72AFEAA
:1028B0006D1C802DD2DB0198FEF742FC3C4DA96ACD
:1028C00001F0F6FF0627FF433946FEF745FC30606E
:1028D0000298FEF735FCA96A079101F0E9FF394635
:1028E000FEF73AFC70600398FEF72AFC079901F0A6
:1028F000DFFF3946FEF730FCB0600498FEF720FC9D
:10290000696A01F0D5FF3946FEF726FC06462060CD
:102910000598FEF715FC696A079101F0C9FF394671
:10292000FEF71AFC054660600698FEF709FC079959
:1029300001F0BEFF3946FEF70FFC0746A0601D48B8
:10294000864201DC206805E07F21C905304602F09F
:1029500007F82060184EB04204D97F21C90501F064
:1029600061FF20601348854201DC606805E07F213B
:10297000C905284601F0F4FF6060B04204D97F2108
:10298000C90501F04FFF60600A48874201DCA0687A
:1029900005E07F21C905384601F0E2FFA060B042A2
:1029A00004D97F21C90501F03DFFA0600FB0F0BD43
:1029B00000000020CDCC4C3FCDCC4CBF7047000078
:1029C0003EB5044664200D4D0E210290019128462B
:1029D000012320220095D421E838FEF72BFF288818
:1029E000208068886080A888A080E888E0802889A6
:1029F000208168896081A889A0813EBD6401002092
:102A00003EB5044664200A4D0821029001912846F3
:102A1000012320220095D421E838FEF70BFF2888F7
:102A2000208068886080A888A080E888E0803EBD1B
:102A3000640100203EB504466420094D0621029041
:102A400001912846012328220095D421E838FEF779
:102A5000F1FE2888208068886080A888A0803EBD1C
:102A600064010020FEB50E4C012564266F4670C738
:102A700020462B461222D421E838FEF7DBFE2078D0
:102A80006F462843207070C7204601231222D421AC
:102A9000E838FEF777FF6420FEF734FDFEBD000046
:102AA0006401002070470000F0B595B0002704973E
:102AB00005970697079712971397109711970A97FC
:102AC0000D970E970B970C970F970897382168462C
:102AD000099701730126642403AD33461022D421E3
:102AE000FE48019600950294FEF74CFF442168468B
:102AF000017301231222D421F84801960095029413
:102B0000FEF740FF6420FEF7FDFC684607730123D3
:102B10001E22D421F148019600950294FEF78AFE08
:102B20006946087BC007C00F0873F0D004A8FFF700
:102B300047FF002704A8FFF743FF6846018F008B7B
:102B40007F1C091868460187418F408BFFB2091826
:102B500068464187818F808B091868468187052FD9
:102B6000E8D301463820085EFEF7EAFADC4F394622
:102B7000FEF7ECF9FEF79AFA694608873A20085EF4
:102B8000FEF7DEFA3946FEF7E1F9FEF78FFA6946FD
:102B900048873C20085EFEF7D3FA3946FEF7D6F99F
:102BA000FEF784FA694688870E7301231422D42124
:102BB000CA48019600950294FEF7E4FE6420FEF7F1
:102BC000A1FC00206946087301231E22D421C348BA
:102BD000019600950294FEF72DFE6946087BC0071A
:102BE000C00F0873F0D004A8FFF7EAFE002704A87E
:102BF000FFF7E6FE10A801886846008B7F1C0918C5
:102C000010A8018041886846408BFFB2091810A8BF
:102C1000418081886846808B091810A88180052F23
:102C2000E5D301460020085EFEF78AFAAC4F39462C
:102C3000FEF78CF9FEF73AFA10A908800220085E28
:102C4000FEF77EFA3946FEF781F9FEF72FFA10A952
:102C500048800420085EFEF773FA3946FEF776F9DD
:102C6000FEF724FA10A98880022069460873012320
:102C70001422D4219948019600950294FEF782FE11
:102C80006420FEF73FFC00206946087301231E22E2
:102C9000D4219248019600950294FEF7CBFD694637
:102CA000087BC007C00F0873F0D004A8FFF788FEA8
:102CB000002704A8FFF784FE10A801896846008B4E
:102CC0007F1C091810A8018141896846408BFFB21A
:102CD000091810A8418181896846808B091810A8BD
:102CE0008181052FE5D302460820105EFEF728FA01
:102CF0007B4F3946FEF72AF9FEF7D8F910AA108162
:102D00000A20105EFEF71CFA3946FEF71FF9FEF79F
:102D1000CDF910AA50810C20105EFEF711FA394649
:102D2000FEF714F9FEF7C2F910AA908100276A464F
:102D3000177301231022D42168480196009502944C
:102D4000FEF720FE5C206A46107301231122D42175
:102D50006248019600950294FEF714FE44206A46EC
:102D6000107301231222D4215C480196009502942D
:102D7000FEF708FE6420FEF7C5FB6A4617730226BD
:102D80000120034601901E22D4210095029453484D
:102D9000FEF750FD6946087B30400873F0D004A868
:102DA000FFF70EFE002704A8FFF70AFE6846018C15
:102DB000408A7F1C091868460184418C808AFFB2D2
:102DC000091868464184818CC08A09186846818444
:102DD000052FE8D302462020105EFEF7B1F9404FE0
:102DE0003946FEF7B3F8FEF761F96A4610842220EF
:102DF000105EFEF7A5F93946FEF7A8F8FEF756F97A
:102E00006A4650842420105EFEF79AF93946FEF790
:102E10009DF8FEF74BF96A46908404201073012751
:102E20003B461422D4212D48019700950294FEF7C9
:102E3000A9FD6420FEF766FB00206A46107301209E
:102E4000034601901E22D421009502942348FEF7E8
:102E5000F1FC6946087B30400873F0D004A8FFF706
:102E6000AFFD002704A8FFF7ABFD6846018D408A3F
:102E70007F1C091868460185418D808AFFB20918B8
:102E800068464185818DC08A091868468185052F6D
:102E9000E8D302462820105EFEF752F9104F39465B
:102EA000FEF754F8FEF702F96A4610852A20105EF4
:102EB000FEF746F93946FEF749F8FEF7F7F86A4695
:102EC00050852C20105EFEF73BF93946FEF73EF8A0
:102ED000FEF7ECF86A4690850C2003E07C000020A9
:102EE0000000A040107301273B461422D42134482F
:102EF000019700950294FEF745FD6420FEF702FB62
:102F000000206A46107301231E22D4212C48019709
:102F100000950294FEF78EFC6946087B30400873EA
:102F2000F1D004A8FFF74CFD002604A8FFF748FDE8
:102F30006846018E408A761C091868460186418ED3
:102F4000808AF6B2091868464186818EC08A0918BF
:102F500068468186052EE8D301463020085EFEF7DC
:102F6000EFF8184E3146FDF7F1FFFEF79FF869467E
:102F700008863220085EFEF7E3F83146FDF7E6FFEB
:102F8000FEF794F8694648863420085EFEF7D8F8C4
:102F90003146FDF7DBFFFEF789F869468886002099
:102FA000087301231422D421054801970095029447
:102FB000FEF7E8FC6420FEF7A5FA15B0F0BD0000AE
:102FC0007C0000200000A04004490968CA69D2437F
:102FD0001206FBD40249088170470000D00000208F
:102FE0002038014070B5034615460E465220FFF7C3
:102FF000EBFF4120FFF7E8FF4B20FFF7E5FF184606
:10300000FFF7E2FFE8B2FFF7DFFFECB25C402B0A0C
:103010001846FFF7D9FF6340002406E0305DFFF754
:10302000D3FF305D4340641CA4B2AC42F6D31846D3
:10303000FFF7CAFF70BD000010B5FEF77BFD084822
:103040008188002901D0491E81800189002901D091
:10305000491E0181C188002901D0491EC18010BDCF
:103060000000002030B595B030216846FDF72FF9FB
:1030700000240D94129401200E94039013940225C1
:10308000102009940F940490009500040C9410945F
:103090000A90119408950B946846FEF7DBFE002811
:1030A00001D072B6FEE707200C900E9400210D951A
:1030B0000F940CA8FEF710FE002801D072B6FEE7B0
:1030C000212010901294139410A8FEF791FD00286F
:1030D00001D072B6FEE715B030BD704710B5818CD7
:1030E000090707D501684A680123DB039A43436B4C
:1030F0001A434A60818CC90707D001684A680123D6
:103100005B049A43836A1A434A60818C890707D516
:1031100001684A6801231B049A43C36A1A434A6040
:10312000818C490707D501684A6801239B049A43AB
:10313000036B1A434A60818CC90607D502689168FF
:1031400001231B039943836B19439160818C89068A
:1031500007D501688A6801235B039A43C36B1A434E
:103160008A60818C490612D503685A6801210905D5
:10317000046C8A4322435A60026C8A4207D1026877
:10318000516803235B059943436C19435160818C5B
:10319000090607D501684A680123DB04806C9A435D
:1031A00002434A6010BD0000FEB507460025803787
:1031B00004467D60FEF790FA01902068006826467C
:1031C00000076036002819DA274800900121002204
:1031D00049052046019B00F011F900280ED0EFF3BD
:1031E0001080012181F3108821680A6880239A43A6
:1031F0000A6080F310882020E06729E020680068DA
:10320000400728D518480090012100228905204652
:10321000019B00F0F3F800281DD0EFF3108001218E
:1032200081F3108821680A68FF2321339A430A60DA
:1032300080F31088EFF31080012181F3108821685A
:103240008A68520852008A6080F310882020386013
:1032500035760320FEBD2020E06738602566656670
:1032600035760020FEBD0000FFFFFF0110B5EFF333
:103270001081012282F3108802681368FF24213430
:10328000A343136081F31088EFF31081012282F3CE
:103290001088026893685B085B00936081F3108874
:1032A000016E01290BD1EFF31081012282F3108806
:1032B000026813681024A343136081F3108820224E
:1032C00080210A5000210166816610BD70B5044658
:1032D00080682169E2690843616900251143226819
:1032E000084311683F4B1940014311602168486849
:1032F000032212039043E26810434860A169206AE8
:10330000084321688A680B231B029A4302438A60A0
:1033100035492068884210D13448006B8007800FFF
:103320000ED0012805D0022805D003280AD1022199
:1033300009E0042107E0082105E02D49884201D178
:10334000002100E010210120E369C003294A2A4E30
:10335000834222D1002906D0022907D0042907D0B0
:10336000082935D108E0FEF73BFD03E0104603E0F5
:10337000FEF746FD002830D0616840004A088018FA
:10338000FCF7A7FF01461039B14221D81A49491C60
:1033900001400007400F08431DE0002906D0022924
:1033A00007D0042907D0082912D108E0FEF718FD3C
:1033B00003E0104603E0FEF723FD00280DD061680E
:1033C0004A081018FCF785FF01461039B14201D9AF
:1033D000012502E080B22168C8600020A066E06696
:1033E000284670BDF369FFFF00380140001002401D
:1033F0000044004000127A00EFFF0000FFB50646CF
:103400008036054681B00F460446603534E00A98A0
:10341000401C31D0FEF760F90499411A0A988142A4
:1034200018D8002816D020680168490724D5802FB5
:1034300022D0402F20D0C169C94309070CD40827E6
:1034400007622046FFF712FF7760002028760120F0
:1034500005B0F0BD0320FBE7C069C04300050BD4F5
:1034600001202168C00208622046FFF7FFFE2020ED
:10347000706000202876EDE72068C16938468843EF
:1034800005D0002103988142C1D00020E0E701214E
:10349000F8E70000034800680068800601D502488C
:1034A00080887047D000002020380140F8B5040C17
:1034B0008BB2264682B25E430D0C1046370C584341
:1034C000360480190021794116466E43370C3604C4
:1034D0008019794126466E438919F8BD4900CA0210
:1034E0000243100000D004204A0D01D001221043F5
:1034F000044A490D914201D102210843012800D11B
:1035000005207047FF0700008307FF22DB0E9A406B
:103510008907090E9940002808DB830809489B00A9
:103520001B18186890430843186070470007000F85
:103530000838830804489B001B18D8699043084347
:10354000D861704700E400E000ED00E0F8B5044603
:103550004F1EC8000838211815461E4608684968DD
:103560003A4606239A4310D02A463346FDF770FBAD
:103570003A46D200083AA3181A687F1E5B68FDF726
:1035800013F906223B469343EED1022F23D0042F9A
:1035900011D0062F2FD12A463346FDF759FBE36A97
:1035A000A26AFDF701F92A463346FDF751FB636A2B
:1035B000226AFDF7F9F82A463346FDF749FBE3692D
:1035C000A269FDF7F1F82A463346FDF741FB63692E
:1035D0002269FDF7E9F82A463346FDF739FBE3682F
:1035E000A268FDF7E1F82A463346FDF731FB636830
:1035F0002268FDF7D9F8F8BD002210B51346104631
:103600000149FDF701F910BD0000F03F10B501229E
:10361000FDF742FC10BD10B5FDF7C6F810BD002245
:1036200010B5134610461146FDF7EEF810BD000028
:1036300010B50721024A00200907FDF72DFC10BD37
:1036400001030000034A10B500201107FDF724FC18
:1036500010BD000001FDFFFFF0B589B004460D4626
:103660004800069172494008884215DB714988423A
:1036700003DC884207D1002C05D020462946FFF7FD
:10368000C5FF09B0F0BD6C48002D02DD6B4909B0E3
:10369000F0BD6B4909B0F0BD6A49884211DA6A4948
:1036A00088420BDA20462946FFF718FF042801D18B
:1036B000FFF7C8FF2046294609B0F0BD0026F643B3
:1036C0005DE06D0061496D08884232DA60498842E8
:1036D00019DA0026012332469B0720462946FDF7CA
:1036E00063F807460191012220462946FDF7D4FBE5
:1036F0000022584BFDF765F83A46019BFDF784F828
:1037000004460D463BE001260022524B2046294646
:10371000FDF74AF80746009100224E4B2046294605
:10372000FDF74FF83A46009BFDF76EF804460D464C
:1037300025E04949884219DA02260022474B2046F3
:103740002946FDF785FA0022424BFDF72DF8074682
:1037500002910022414B20462946FDF732F83A46B5
:10376000029BFDF751F804460D4608E00326224669
:103770002B4600203A49FDF747F804460D462246FD
:103780002B4610461946FDF763FA07460B460246DC
:103790000191FDF75DFA0246029032480B46039113
:1037A00006217844FFF7D2FE3A46019BFDF750FA16
:1037B00000902D48019105217844039B029AFFF760
:1037C000C5FE039B029AFDF743FA02460B46019998
:1037D0000098002E0BDAFCF7E7FF22462B46FDF798
:1037E00037FA22462B46FCF7F7FF09B0F0BDFCF78D
:1037F000DBFF22462B46FDF72BFA1C4AF6007A44E3
:1038000093191A685B68FCF7DCFF22462B46FCF72D
:10381000D8FF174A7A4493191A685B68FCF7DCFFF3
:10382000069A002AE1DA0122D207514009B0F0BD20
:10383000000010440000F07F182D4454FB21F93F94
:10384000FB21F9BF0000DC3F0000203E0000F33FF9
:103850000000E63F0000F03F008003400000F83F1A
:103860000000F0BF7214000034140000CE130000FA
:1038700098130000F0B51FB4039B54425D00164638
:1038800026439C46F40F6D084B004E4E5B082C43BC
:103890008E46B44205D847420743FC0F1C43B4424E
:1038A00004D96346FFF7B7FE05B0F0BD464E664447
:1038B000164309D0CC0F6646B61702273E40264372
:1038C00004461C4304D00BE0FFF7C6FE05B0F0BD74
:1038D000002EFBD0012EF9D0022E32D0032E34D090
:1038E00014462C430BD0374CA54216D1A3420AD123
:1038F000012189078D438B43194603950DE07046DE
:1039000000280FDB25E0314F7F44002E0ED0012E22
:1039100010D0022E15D0032E17D0A3421DD1704611
:10392000002816DA2A482B4905B0F0BD79683868B6
:1039300005B0F0BD01227968D2073868514005B062
:10394000F0BD2348244905B0F0BD2148234905B006
:10395000F0BD1F48224905B0F0BD5B1B1B153C2B79
:1039600002DD1B481E490FE06446002C05DA3C24AA
:10397000E34202DA0020014606E0039BFCF744FF25
:1039800049004908FFF768FE002EE4D0012E0BD055
:10399000144A154B022E0CD0FCF713FF0C4A0E4BA9
:1039A000FCF70FFF05B0F0BD0122D207514005B072
:1039B000F0BDFCF706FF064A074BFCF70DFF05B00C
:1039C000F0BD00000000F07F000010C03C130000BC
:1039D000182D4454FB21F9BFFB210940FB2109C0EC
:1039E000FB21F93F075C143326A6A13C8AB0FEF701
:1039F000A9F8FFF737FBFEF791FEFEF7CDFEFEF7C5
:103A0000F7FED74C2078FDF750FD60626078FDF737
:103A100061FDA062FFF748F8FFF724F8E378A27889
:103A200061782078FEF704FECE4908460C30FEF798
:103A300003FF3226A088002803D0962805D800224C
:103A400004E07D20C000A08005E0012209200421BF
:103A5000C006FDF73BFE208900287DD1FDF73CFE26
:103A60000546E068281AFDF773FBBF49FDF76EFABB
:103A7000E5602062BA484430FEF7DCFFB84D002014
:103A80004435285EFDF75CFB616A009100F010FF91
:103A9000B44F396800F064FFE0620220285EFDF751
:103AA0004FFB009900F004FF796800F059FF206394
:103AB0000420285EFDF744FB009900F0F9FEB96888
:103AC00000F04EFF6063A81DFEF79AFFAD1D0220B7
:103AD000285EFDF735FBA16A009100F0E9FE0C3786
:103AE000396800F03DFFA0630420285EFDF728FB45
:103AF000009900F0DDFE796800F032FFE0630620F7
:103B0000285EFDF71DFB009900F0D2FEB96800F0B9
:103B100027FF2064E06AFDF7EFF9944F00223B464F
:103B2000FCF772FE0122FDF7B7F9FCF783FC8D4D1F
:103B3000F4352860206BFDF7DFF900223B46FCF7E7
:103B400063FE0122FDF7A8F9FCF774FC6860606B66
:103B5000FDF7D2F9002200E09BE03B46FCF754FE63
:103B60000122FDF799F9FCF765FCA860074680483B
:103B70002169FDF7EBF9FDF7BFF902900391384693
:103B8000FDF7BAF9012300229B0700F0F5F807467C
:103B900000912868FDF7B0F9012300229B0700F08F
:103BA000EBF83A46009BFCF7FFFD00F0E3FD07460B
:103BB00005916868FDF7A0F93A46059BFFF75AFEA4
:103BC000039B029AFDF744F8FCF734FC0290684826
:103BD0002169FDF7BBF9FDF78FF907460491A86845
:103BE000FDF78AF9012300229B0700F0C5F8039135
:103BF00000906868FDF780F9012300229B0700F020
:103C0000BBF8039B009AFCF7CFFD00F0B3FD0591D4
:103C100006902868FDF770F9059B069AFFF72AFEC3
:103C20003A46049BFDF714F8FCF704FC0590216A62
:103C3000A06B0D4600F03CFE616900F0F3FD074605
:103C40002946E06B00F034FEA16900F0EBFD039023
:103C5000E1697F20C005009100F082FE0790029983
:103C600000F026FE05463946009800F021FE294660
:103C700000F0D8FD60610599079800F019FE05462F
:103C80000399009800F014FE294600F0CBFDA061D6
:103C90002681E088002800D0CCE636490222087050
:103CA0004870E06A0190002301A8C55C8D54521C45
:103CB0005B1C9BB292B2042BF7D3236B01930023BE
:103CC000C55C8D54521C5B1C9BB292B2042BF7D383
:103CD000636B01930023C55C8D54521C5B1C9BB22B
:103CE00092B2042BF7D3A36B01930023C55C8D54D0
:103CF000521C5B1C9BB292B2042BF7D3E36B019373
:103D00000023C55C8D54521C5B1C9BB292B2042BE9
:103D1000F7D3236C01930023C55C8D54521C5B1CAC
:103D20009BB292B2042BF7D3636901930023C55C65
:103D30008D54521C5B1C9BB292B2042BF7D3A36927
:103D400001930023C55C8D54521C5B1C9BB292B244
:103D5000042BF7D30749FE20FFF744F9E68069E614
:103D6000000000206400002000007A44C0FFDF4013
:103D70000000344372010020F0B51FB496B08446B1
:103D80000C460246199D189803904900680063008C
:103D9000490840080193002A01D0012600E00026CE
:103DA0009E19FE4BF6185B109E422BD36E00039FAC
:103DB0000296002F00D00127F719F84EF84BBE19D4
:103DC0009E421FD3039E0346F64F334309D03B4622
:103DD0009C4201D1002A04D0019B002A05D0012673
:103DE00004E0002039461BB0F0BD00269E19EE4BC2
:103DF0009E4207D8039F029E002F00D00127F6198C
:103E00009E4207D92B4660462146189AFFF703FCCD
:103E10001BB0F0BD0023002C29DAE44EB04226DAB4
:103E2000E34EB04201DB022321E0DE4EB0421EDB56
:103E3000E04E070DBE19142E09DD3427BF1B039E6B
:103E4000FE400196BE40039FBE420BD00FE0039F91
:103E5000002F0CD11427BF1B0646FE400196BE4022
:103E6000864204D1019BDE07F60F02239B1B0E4600
:103E7000164318D1002D16DA002C03D0022B01D0E6
:103E8000012B06D00220FDF78EF9FFF7B5FB1BB022
:103E9000F0BD0220FDF787F9FFF7AEFB0122D20744
:103EA00051401BB0F0BD039E002E61D1BF4EB04209
:103EB00020D1C148844201D1002A08D0B9488142AA
:103EC00009DB002D10DB189829461BB0F0BD00203F
:103ED000B4491BB0F0BD002D06DA01222946D207F5
:103EE000189851401BB0F0BDB4497944086849683E
:103EF0001BB0F0BDAB4FB84225D1002D1FDA002911
:103F000004D0B14212D1002A09D018E0002A72D19F
:103F1000A649E20F0020D20711431BB0F0BD0020DC
:103F2000E20F0146D20711431BB0F0BDB14206DAE1
:103F3000234600203946FCF767FC1BB0F0BD104655
:103F400021461BB0F0BDB14212DA0126B607B542D8
:103F500003D1234610461946FEE3994EB54207D1D8
:103F6000261E05DB1046314600F004FC1BB0F0BDF8
:103F700067007F081646002A40D100290AD08B4AE4
:103F8000914229D1002C0EDD002D1CDB00201146B2
:103F90001BB0F0BD022B16D0002C14D0012B12D177
:103FA000002C14DB0FE0002C28DA002D09DB012B9C
:103FB00003D000207D491BB0F0BD002081491BB01B
:103FC000F0BD012B03D0002001461BB0F0BD002046
:103FD0000121C9071BB0F0BD724A91420ED1002CDD
:103FE00001DA002B17D0022B06D00020C043FDF7CA
:103FF00001F91BB0F0BD90E20120F8E7E217521C76
:1040000094461A4307D000220892664C62465B1E13
:104010001A4307D009E00120FDF7C5F8FFF7FFFAC2
:104020001BB0F0BD0022644C0892674A90427DDDCF
:10403000664B674A98421FDD914202DC002D05DB8A
:104040004DE05848814217DB002D48DD0220FDF786
:10405000AAF8FFF7EDFA05460E460022534B21461B
:104060000898FCF7F5FD084671004908C00FC00725
:10407000014328461BB0F0BD914215DA002D2EDA1F
:104080000220FDF790F8FFF7D3FA05460E4600220E
:10409000464B21460898FCF7DBFD72005208C80F1A
:1040A000C0070243114617E03E4B994223DD002D25
:1040B00015DD0220FDF777F8FFF7BAFA05460E4640
:1040C00000223A4B21460898FCF7C2FD08467100D1
:1040D0004908C00FC007014328461BB0F0BD0220AD
:1040E000FDF761F8FFF7AEFA49004908E20FD20781
:1040F00011431BB0F0BD002230463946FCF761FB8E
:10410000012205460E46D243FCF7C6FE314A324B29
:10411000FCF762FB2A463346FCF79AFD0022284B47
:10412000FCF75AFB07462A46334600E064E0039159
:1041300010461946FCF78CFD3A46039BFCF788FDB8
:104140000746032209915207244B28463146FCF7C3
:104150007FFD07910C90224A204B38460999FCF7C5
:1041600077FD074601911F4A1F4B28463146FCF751
:104170006FFD3A46019BFCF724FB07460B460246BF
:10418000099107990C98FCF70FFB00250E4628466D
:10419000079B0C9AFCF715FB3A4627E0FFFF1F0030
:1041A000FFFF0F000000F03F0000E0FF0000F07F85
:1041B0000000404301FCFFFF0000F0BF5A0D00006B
:1041C0000000E03F0000F0FF0000E0410000F0438D
:1041D000FFFFEF3F555555555555D53F4715F73F0F
:1041E000FE822B6544DF5DF80BAE543E099BFCF765
:1041F000F3FA02460B4652E1012500202D05A942A3
:1042000007DA352230463946FCF746FE06463420AA
:10421000C0430A151218FE48101803900803FD4900
:10422000000B01430F46FC49884201DC002003E0FB
:10423000FA49884202DA0120119005E0002011902D
:104240000398401C7F1B039011980597C200F44807
:104250000F927844801843680268394630460D93BF
:104260000292FCF7AEFA07910C9030460D9B029A31
:104270000599FCF799FA02460B460020E549FCF740
:10428000C3FA09910490079B0C9AFCF7E1FC129089
:1042900000201090E3480D46784400680E900121FC
:1042A00078104907084311990D9B89044018012192
:1042B000C90447183946029A0E98FCF782FA32462A
:1042C000059BFCF789FA02460B4629461098FCF735
:1042D000BFFC064602913B4629460E9A1098FCF711
:1042E000B7FC079B0C9AFCF777FA3246029BFCF767
:1042F00068FA099B049AFCF7ABFC0591129A0A90A4
:104300002B4610461946FCF7A3FC06460246C64853
:104310000F460B4606217844FFF718F932463B4614
:104320000091049010461946FCF792FC009B049AF9
:10433000FCF78EFC06460F462B461946129A10983B
:10434000FCF732FA059B0A9AFCF782FC32463B46A0
:10435000FCF72AFA109A079104902B46104619464A
:10436000FCF776FCB14E0022334609910290FCF72F
:104370001BFA079B049AFCF717FA0020074602462F
:1043800033460091FCF71DFA099B029AFCF719FAD3
:10439000079B049AFCF720FA06460D913A462946F7
:1043A000009B1098FCF754FC07910C902B4630466C
:1043B000129A0D99FCF74CFC05460E463A46009BB6
:1043C00005990A98FCF744FC33462A46FCF7ECF9B9
:1043D00002460B460746099107990C98FCF7E4F949
:1043E00000250E462846079B0C9AFCF7EAF93A4648
:1043F000099BFCF7F1F907460722099152078C4BFC
:1044000031462846FCF724FC07910090894A884BE6
:1044100038460999FCF71CFC07460191864A874BF0
:1044200031462846FCF714FC3A46019BFCF7BCF9E0
:10443000834B7B440F9A9B181A685B68FCF7B4F9AE
:10444000029009910398FCF7D5FE05910490099B11
:10445000029A07990098FCF7A7F97A4B7B440F9AC8
:104460009B181A685B6817460393FCF79DF9059B38
:10447000049AFCF799F90E462846059B049AFCF726
:10448000A0F93A46039BFCF79CF9079B009AFCF7BE
:1044900098F9099B029AFCF79FF902460B46199975
:1044A00000200C900F461898FCF7D2FB0291049064
:1044B0003B460C9A19991898FCF783F92A4633461B
:1044C000FCF7C6FB029B049AFCF76EF909910E906B
:1044D0002A46334639460C98FCF7BAFB06460F4687
:1044E000099B0E9AFCF760F9574A0D46914220DB72
:1044F0005242AA18024310D132463B46FCF761F9FA
:1045000004900391514A524B09990E98FCF74CF9CB
:10451000039B049A00F052F91ED20220FCF743FEDE
:10452000FFF786F849004908E20FD20711431BB094
:10453000F0BD6A00474B52089A420DD3464AAA186A
:10454000024300D0CBE532463B46FCF73AF9099BE3
:104550000E9A00F033F9F5D96800002340082C4981
:104560000393020D3D4B5218984223DD01200005B4
:10457000521CD04042195000400D4018384979442F
:10458000096813468C463749C1408B431203012109
:10459000120B090551181422101AC1400391002D65
:1045A00001DA48420390624630463946FCF709F981
:1045B00006460F4632463B4609990E98FCF7F4F83A
:1045C00000252A46284B28460591FCF741FB079118
:1045D0000C90264A264B28460599FCF739FB00919A
:1045E000029032463B4628460599FCF7EAF8099BBB
:1045F0000E9AFCF7F1F81F4A1F4BFCF729FB009BB2
:10460000029AFCF7D1F807460B460246099135E0BD
:1046100001FCFFFF0000F03F8E9803007AB60B000C
:10462000D2080000AC0900003E080000000008406D
:1046300009C7EE3FFD033ADCF5015B14E02F3EBEF7
:1046400012070000D806000000009040FE822B6593
:104650004715973C00CC904000346F3F0000E03F8E
:10466000C6060000FFFF0F00432EE63F396CA80C82
:10467000615C20BEEF39FAFE422EE63F07990C98A6
:10468000FCF792F805460E46079B0C9AFCF799F842
:104690003A46099BFCF7A0F809912A4633460E904A
:1046A00010461946FCF7D4FA074602462F480B4637
:1046B000059105217844FEF749FF3A46059BFCF732
:1046C000C7FA2A463346FCF787F807460191284681
:1046D0003146099B0E9AFCF7BBFA099B0E9AFCF730
:1046E00063F8012304910C9000229B07384601993E
:1046F000FCF767F805910E903A4628463146019B33
:10470000FCF7A6FA059B0E9AFCF77EF8049B0C9A20
:10471000FCF757F82A463346FCF753F80022144BAF
:10472000FCF75AF8064603980D460005411909158D
:10473000002912DC30462946039AFCF7ADFBFEF750
:10474000CDFE042801D1FEF77DFF30462946039AAD
:10475000FCF7A2FB064601E004E029180B463246AE
:1047600021460898FCF774FA1BB0F0BDD004000095
:104770000000F03FF8B506460C46FCF747FD051E65
:104780000F4600D00120014349000B484908411A57
:10479000C90F0DD0002E01D0012100E000210C43F3
:1047A00061004908401AC00F02D10120FCF7FBFC50
:1047B00028463946F8BD00000000F07F70B501259D
:1047C0001C002D050C4310D4EC4206D4AC420AD494
:1047D0008B4200D070BD824270BDEB4217D4E942DB
:1047E00015D48B4270BD9B4270BDEC4206D5AC42E5
:1047F000F9D5994200D070BD904270BD6D005C004B
:10480000EC4204D24C00EC4201D2994270BD0FB48C
:10481000034C0CBC03BC30B4FCF77CFD30BC70BD59
:104820001900160470B501250400ED074C4020D492
:10483000441A01D2001B0919C60D4B00F2B2FF2A1F
:1048400029D01B0E2CD000020C02D31A2C43DC40C2
:104850002843051910D2280A02D3401C6D0611D036
:10486000761EF6058019FF2A00DA70BDC00DC0055E
:1048700070BD694000F07AF801200543C541521C23
:10488000761CE8E764089C40C90161408900E7D1D3
:104890000124A043E4E71B0E440200D0034870BD8E
:1048A000002AFCD1C00FC00770BD00BF0000C07F50
:1048B00070B5420064414B005C41120E39D01B0EB2
:1048C00038D0FF2A3CD0FF2B3AD040024902400AA0
:1048D000490A060045184E43000A090AD2184843FF
:1048E000ED017F3A0104731A4019190C4318990F0E
:1048F00004D001215B0849075B1A521CD80904D374
:10490000401CF50301D19D0607D0FF2A08D2D5052A
:1049100006D0E4072043401970BD0125A843F4E701
:10492000002A01DCE00770BD2402FF202043C005FF
:1049300070BD1B0EFF2A03D0FF2B01D0E00770BD16
:10494000FF2645003606B54206D84D00B54203D8CD
:10495000D218FF2A00D0E7E7004870BD0000C07FF2
:1049600070B501250400ED074C4022D4441A02D250
:104970006C40001B0919C60D4B00F2B2FF2A4BD048
:104980001B0E50D000020C02D31A2C43DC40A8436B
:10499000051B05D5AD0019D36D08761E521E37D004
:1049A000F605280A01D2801970BD70416D0603D04A
:1049B00070BD6940FFF73CFF9C400902614049001F
:1049C00001D0401E70BD0124A04370BD6D081DD0F4
:1049D00001202B0C01D12D0410302B0E01D12D0202
:1049E00008302B0F01D12D01001DAB0F01D1AD00FF
:1049F000801CEB0F01D16D00401C6D00361A121A9D
:104A0000680AF5054019012A02DB70BD002070BD5F
:104A1000C036300AC00770BD1B0E440201D1FF2B07
:104A200000D1024870BD002AF0D070BD0000C07FE8
:104A300002030405060708090A0B0C0D0E0F1010DF
:104A40000102030405060708090A0B0C0D0E0F10DE
:104A5000000000000000000001020304060708092E
:104A6000000000000102030480807F7E7D7C7B7A51
:104A70007978777676757473727171706F6E6E6D0A
:104A80006C6C6B6A6A6968686766666564646363B0
:104A900062616160605F5F5E5E5D5D5C5C5B5B5A36
:104AA0005A595958585757565655555554545353A3
:104AB00052525251515050504F4F4F4E4E4D4D4DFE
:104AC0004C4C4C4B4B4B4A4A4A4949494848484749
:104AD0004747474646464545454444444443434387
:104AE0004342424242414141818283848586878894
:104AF000898B8C8D8E8F919293959697999A9C9D88
:104B00009FA0A2A3A5A7A8AAACAEB0B2B3B5B7B9EF
:104B1000BCBEC0C2C5C7C9CCCED1D4D7D9DCDFE2B8
:104B2000E6E9ECF0F3F7FAFE000000000000F03FC9
:104B3000000000000000F83F00000000000000003E
:104B40000000004003B8E23F000000000000000049
:104B500006D0CF43EBFD4C3E033333333333E33FD7
:104B6000FFAB6FDBB66DDB3F4D268F515555D53F03
:104B700001411DA96074D13F65DBC9934A86CD3FD1
:104B8000EF4E454A287ECA3F3E5555555555C53FBF
:104B900093BDBE166CC166BF2CDE25AF6A56113FB1
:104BA000F16BD2C541BDBBBED0A4BE726937663EB3
:104BB0004FBB610567ACDD3F182D4454FB21E93F35
:104BC0009BF681D20B73EF3F182D4454FB21F93F24
:104BD000E2652F227F2B7A3C075C143326A6813CAA
:104BE000BDCBF07A8807703C075C143326A6913C55
:104BF000C4EB98999999C9BF711623FEC671BCBFC1
:104C00006D9A74AFF2B0B3BF9AFDDE522DDEADBF28
:104C10002F6C6A2C44B4A2BF0D5555555555D53F40
:104C2000FF8300922449C23F6E204CC5CD45B73F5B
:104C3000513DD0A0660DB13FEB0D76244B7BA93FD3
:104C400011DA22E33AAD903F0000000000000000BE
:104C5000704C00080000002064000000F80000080C
:104C6000D44C000864000020D407000014010008A0
:104C7000000005050000000000000000000000002A
:104C8000DB0F494000000000000000003333733F99
:104C90000000000000000000000000000000000014
:104CA0000000000000000000000000000000000004
:104CB00000000000000000000000000000000000F4
:104CC00000000000010000000400000000000000DF
:044CD00000127A0054
:04000005080000B53A
:00000001FF
